CBSAAN.G0931V00     20230829000000 20230904000000 0001 20230905020147                                                                                                                                                             
371859062         20222VPB                 20230904Aangifte winst met bijlage                     1                            GzYfSLgooZKYKAaNGgLZFCgZRJvWvQTUzuUf    EUR0    785      2022020120230131DA                        
371859062         20222VPB                 20230904Aangifte winst met bijlage                     1                 58912,00000                                        EUR0    787      2022020120230131DA                        
371859062         20222VPB                 20230904Aangifte winst met bijlage                     1                 58912,00000                                        EUR0    789      2022020120230131DA                        
371859062         20222VPB                 20230904Aangifte winst met bijlage                     1                 58699,00000                                        EUR0    791      2022020120230131DA                        
371859062         20222VPB                 20230904Aangifte winst met bijlage                     1                 49663,00000                                        EUR0    793      2022020120230131DA                        
371859062         20222VPB                 20230904Aangifte winst met bijlage                     1                499288,00000                                        EUR0    796      2022020120230131DA                        
371859062         20222VPB                 20230904Aangifte winst met bijlage                     1                449625,00000                                        EUR0    800      2022020120230131DA                        
371859062         20222VPB                 20230904Aangifte winst met bijlage                     1                449625,00000                                        EUR0    801      2022020120230131DA                        
371859062         20222VPB                 20230904Aangifte winst met bijlage                     1                     0,00000                                        EUR0    848      2022020120230131DA                        
371859062         20222VPB                 20230904Aangifte winst met bijlage                     1                  9036,00000                                        EUR0    879      2022020120230131DA                        
371859062         20222VPB                 20230904Aangifte winst met bijlage                     1                  9036,00000                                        EUR0    880      2022020120230131DA                        
371859062         20222VPB                 20230904Aangifte winst met bijlage                     1                  9036,00000                                        EUR0    886      2022020120230131DA                        
371859062         20222VPB                 20230904Aangifte winst met bijlage                     1                            IgBwZwDhQIWkcjeoRSfrSsAYgKhSTYbwFh      EUR0   1187      2022020120230131DA                        
371859062         20222VPB                 20230904Aangifte winst met bijlage                     2                            AiVlhvPiIrVCwusjQKeUICKxftBngQqqNw      EUR0   1187      2022020120230131DA                        
371859062         20222VPB                 20230904Aangifte winst met bijlage                     1                 17017,00000                                        EUR0   1190      2022020120230131DA                        
371859062         20222VPB                 20230904Aangifte winst met bijlage                     2                 17017,00000                                        EUR0   1190      2022020120230131DA                        
371859062         20222VPB                 20230904Aangifte winst met bijlage                     1                    50,00000                                        EUR0   1193      2022020120230131DA                        
371859062         20222VPB                 20230904Aangifte winst met bijlage                     2                    50,00000                                        EUR0   1193      2022020120230131DA                        
371859062         20222VPB                 20230904Aangifte winst met bijlage                     1                 13053,00000                                        EUR0   1198      2022020120230131DA                        
371859062         20222VPB                 20230904Aangifte winst met bijlage                     2                  4649,00000                                        EUR0   1198      2022020120230131DA                        
371859062         20222VPB                 20230904Aangifte winst met bijlage                 1 101                523473,00000                                        EUR0   1376      2022020120230131DA                        
371859062         20222VPB                 20230904Aangifte winst met bijlage                 2 201                432965,00000                                        EUR0   1376      2022020120230131DA                        
371859062         20222VPB                 20230904Aangifte winst met bijlage                 3 301                     0,00000                                        EUR0   1376      2022020120230131DA                        
371859062         20222VPB                 20230904Aangifte winst met bijlage                 1 101                333927,00000                                        EUR0   1414      2022020120230131DA                        
371859062         20222VPB                 20230904Aangifte winst met bijlage                 2 201                243419,00000                                        EUR0   1414      2022020120230131DA                        
371859062         20222VPB                 20230904Aangifte winst met bijlage                 1 101                 42158,00000                                        EUR0   1510      2022020120230131DA                        
371859062         20222VPB                 20230904Aangifte winst met bijlage                 2 201                 42158,00000                                        EUR0   1510      2022020120230131DA                        
371859062         20222VPB                 20230904Aangifte winst met bijlage                 1 101                 24456,00000                                        EUR0   1514      2022020120230131DA                        
371859062         20222VPB                 20230904Aangifte winst met bijlage                 2 201                 24456,00000                                        EUR0   1514      2022020120230131DA                        
371859062         20222VPB                 20230904Aangifte winst met bijlage                 1 101                147388,00000                                        EUR0   1561      2022020120230131DA                        
371859062         20222VPB                 20230904Aangifte winst met bijlage                 2 201                147388,00000                                        EUR0   1561      2022020120230131DA                        
371859062         20222VPB                 20230904Aangifte winst met bijlage                 1 101                523473,00000                                        EUR0   1575      2022020120230131DA                        
371859062         20222VPB                 20230904Aangifte winst met bijlage                 2 201                432965,00000                                        EUR0   1575      2022020120230131DA                        
371859062         20222VPB                 20230904Aangifte winst met bijlage                 1 101                499288,00000                                        EUR0   1579      2022020120230131DA                        
371859062         20222VPB                 20230904Aangifte winst met bijlage                 2 201                408780,00000                                        EUR0   1579      2022020120230131DA                        
371859062         20222VPB                 20230904Aangifte winst met bijlage                 3 301               -102395,00000                                        EUR0   1579      2022020120230131DA                        
371859062         20222VPB                 20230904Aangifte winst met bijlage                 1 101                 34034,00000                                        EUR0   1583      2022020120230131DA                        
371859062         20222VPB                 20230904Aangifte winst met bijlage                 2 201                 34034,00000                                        EUR0   1583      2022020120230131DA                        
371859062         20222VPB                 20230904Aangifte winst met bijlage                 3 301                 15883,00000                                        EUR0   1583      2022020120230131DA                        
371859062         20222VPB                 20230904Aangifte winst met bijlage                 1 101                465254,00000                                        EUR0   1603      2022020120230131DA                        
371859062         20222VPB                 20230904Aangifte winst met bijlage                 2 201                374746,00000                                        EUR0   1603      2022020120230131DA                        
371859062         20222VPB                 20230904Aangifte winst met bijlage                 3 301               -118278,00000                                        EUR0   1603      2022020120230131DA                        
371859062         20222VPB                 20230904Aangifte winst met bijlage                 1 101                  8982,00000                                        EUR0   1737      2022020120230131DA                        
371859062         20222VPB                 20230904Aangifte winst met bijlage                 2 201                  8982,00000                                        EUR0   1737      2022020120230131DA                        
371859062         20222VPB                 20230904Aangifte winst met bijlage                 1 101                 58699,00000                                        EUR0   1752      2022020120230131DA                        
371859062         20222VPB                 20230904Aangifte winst met bijlage                 2 201                 58699,00000                                        EUR0   1752      2022020120230131DA                        
371859062         20222VPB                 20230904Aangifte winst met bijlage                 1 101                135270,00000                                        EUR0   1756      2022020120230131DA                        
371859062         20222VPB                 20230904Aangifte winst met bijlage                 2 201                135270,00000                                        EUR0   1756      2022020120230131DA                        
371859062         20222VPB                 20230904Aangifte winst met bijlage                 1 101                135270,00000                                        EUR0   1760      2022020120230131DA                        
371859062         20222VPB                 20230904Aangifte winst met bijlage                 2 201                135270,00000                                        EUR0   1760      2022020120230131DA                        
371859062         20222VPB                 20230904Aangifte winst met bijlage                 1 101                 48000,00000                                        EUR0   1827      2022020120230131DA                        
371859062         20222VPB                 20230904Aangifte winst met bijlage                 2 201                 48000,00000                                        EUR0   1827      2022020120230131DA                        
371859062         20222VPB                 20230904Aangifte winst met bijlage                 1 101                   868,00000                                        EUR0   1842      2022020120230131DA                        
371859062         20222VPB                 20230904Aangifte winst met bijlage                 2 201                   868,00000                                        EUR0   1842      2022020120230131DA                        
371859062         20222VPB                 20230904Aangifte winst met bijlage                 1 101                  8842,00000                                        EUR0   1890      2022020120230131DA                        
371859062         20222VPB                 20230904Aangifte winst met bijlage                 2 201                  8842,00000                                        EUR0   1890      2022020120230131DA                        
371859062         20222VPB                 20230904Aangifte winst met bijlage                 1 101                 15885,00000                                        EUR0   1895      2022020120230131DA                        
371859062         20222VPB                 20230904Aangifte winst met bijlage                 2 201                 15885,00000                                        EUR0   1895      2022020120230131DA                        
371859062         20222VPB                 20230904Aangifte winst met bijlage                 1 101                  2518,00000                                        EUR0   1913      2022020120230131DA                        
371859062         20222VPB                 20230904Aangifte winst met bijlage                 2 201                  2518,00000                                        EUR0   1913      2022020120230131DA                        
371859062         20222VPB                 20230904Aangifte winst met bijlage                 1 101                     1,00000                                        EUR0   1933      2022020120230131DA                        
371859062         20222VPB                 20230904Aangifte winst met bijlage                 2 201                     1,00000                                        EUR0   1933      2022020120230131DA                        
371859062         20222VPB                 20230904Aangifte winst met bijlage                 1 101                   347,00000                                        EUR0   1953      2022020120230131DA                        
371859062         20222VPB                 20230904Aangifte winst met bijlage                 2 201                   347,00000                                        EUR0   1953      2022020120230131DA                        
371859062         20222VPB                 20230904Aangifte winst met bijlage                     1                  9036,00000                                        EUR0   2031      2022020120230131DA                        
371859062         20222VPB                 20230904Aangifte winst met bijlage                 1 101                     1,00000                                        EUR0   2103      2022020120230131DA                        
371859062         20222VPB                 20230904Aangifte winst met bijlage                 2 201                     2,00000                                        EUR0   2103      2022020120230131DA                        
371859062         20222VPB                 20230904Aangifte winst met bijlage                 3 301                     3,00000                                        EUR0   2103      2022020120230131DA                        
371859062         20222VPB                 20230904Aangifte winst met bijlage                 1 101                            lTmfhBzaeuMwUd                          EUR0   2106      2022020120230131DA                        
371859062         20222VPB                 20230904Aangifte winst met bijlage                 2 201                            mDVYuwxLJesCgVOcgAoEfxJ                 EUR0   2106      2022020120230131DA                        
371859062         20222VPB                 20230904Aangifte winst met bijlage                 3 301                            eixQneggOznXNtEvTddFjMjolS              EUR0   2106      2022020120230131DA                        
371859062         20222VPB                 20230904Aangifte winst met bijlage                 3 301                            pUObHyFGkmit                            EUR0   2111      2022020120230131DA                        
371859062         20222VPB                 20230904Aangifte winst met bijlage                     1                            cgPVMzU                                 EUR0   2127      2022020120230131DA                        
371859062         20222VPB                 20230904Aangifte winst met bijlage                     1                   213,00000                                        EUR0   2129      2022020120230131DA                        
371859062         20222VPB                 20230904Aangifte winst met bijlage                 1 101                 34456,00000                                        EUR0   2329      2022020120230131DA                        
371859062         20222VPB                 20230904Aangifte winst met bijlage                 3 301               5399178,00000                                        EUR0   2724      2022020120230131DA                        
371859062         20222VPB                 20230904Aangifte winst met bijlage                     1                499288,00000                                        EUR0   2914      2022020120230131DA                        
371859062         20222VPB                 20230904Aangifte winst met bijlage                     1                            nVLViwwF                                EUR0   2973      2022020120230131DA                        
371859062         20222VPB                 20230904Aangifte winst met bijlage                     1                            jtvOczuodM                              EUR0   2991      2022020120230131DA                        
371859062         20222VPB                 20230904Aangifte winst met bijlage                     1                   213,00000                                        EUR0   2992      2022020120230131DA                        
371859062         20222VPB                 20230904Aangifte winst met bijlage                 1 101                     0,00000                                        EUR0   3552      2022020120230131DA                        
371859062         20222VPB                 20230904Aangifte winst met bijlage                 1 101                333742,00000                                        EUR0   3553      2022020120230131DA                        
371859062         20222VPB                 20230904Aangifte winst met bijlage                 1 101                  8982,00000                                        EUR0   3788      2022020120230131DA                        
371859062         20222VPB                 20230904Aangifte winst met bijlage                     1                            YiQClKwq                                EUR0   3811      2022020120230131DA                        
371859062         20222VPB                 20230904Aangifte winst met bijlage                     1                    81,00000                                        EUR0   3941      2022020120230131DA                        
371859062         20222VPB                 20230904Aangifte winst met bijlage                     2                    45,00000                                        EUR0   3942      2022020120230131DA                        
371859062         20222VPB                 20230904Aangifte winst met bijlage                     1                  9036,00000                                        EUR0   3950      2022020120230131DA                        
371859062         20222VPB                 20230904Aangifte winst met bijlage                 1 101                333742,00000                                        EUR0   3951      2022020120230131DA                        
371859062         20222VPB                 20230904Aangifte winst met bijlage                 2 201                243234,00000                                        EUR0   3951      2022020120230131DA                        
371859062         20222VPB                 20230904Aangifte winst met bijlage                 1 101                   185,00000                                        EUR0   3953      2022020120230131DA                        
371859062         20222VPB                 20230904Aangifte winst met bijlage                 2 201                   185,00000                                        EUR0   3953      2022020120230131DA                        
371859062         20222VPB                 20230904Aangifte winst met bijlage                 1 101                  1798,00000                                        EUR0   3955      2022020120230131DA                        
371859062         20222VPB                 20230904Aangifte winst met bijlage                 1 101                     0,00000                                        EUR0   3956      2022020120230131DA                        
371859062         20222VPB                 20230904Aangifte winst met bijlage                 1 101                 17702,00000                                        EUR0   3970      2022020120230131DA                        
371859062         20222VPB                 20230904Aangifte winst met bijlage                 2 201                 17702,00000                                        EUR0   3970      2022020120230131DA                        
371859062         20222VPB                 20230904Aangifte winst met bijlage                 1 101                 17702,00000                                        EUR0   3972      2022020120230131DA                        
371859062         20222VPB                 20230904Aangifte winst met bijlage                 1 101                 24185,00000                                        EUR0   3984      2022020120230131DA                        
371859062         20222VPB                 20230904Aangifte winst met bijlage                 2 201                 24185,00000                                        EUR0   3984      2022020120230131DA                        
371859062         20222VPB                 20230904Aangifte winst met bijlage                 3 301                102395,00000                                        EUR0   3984      2022020120230131DA                        
371859062         20222VPB                 20230904Aangifte winst met bijlage                 1 101                   422,00000                                        EUR0   3986      2022020120230131DA                        
371859062         20222VPB                 20230904Aangifte winst met bijlage                 2 201                   422,00000                                        EUR0   3986      2022020120230131DA                        
371859062         20222VPB                 20230904Aangifte winst met bijlage                 3 301                102395,00000                                        EUR0   3990      2022020120230131DA                        
371859062         20222VPB                 20230904Aangifte winst met bijlage                 1 101                 14781,00000                                        EUR0   3992      2022020120230131DA                        
371859062         20222VPB                 20230904Aangifte winst met bijlage                 2 201                 14781,00000                                        EUR0   3992      2022020120230131DA                        
371859062         20222VPB                 20230904Aangifte winst met bijlage                 1 101                 58699,00000                                        EUR0   3995      2022020120230131DA                        
371859062         20222VPB                 20230904Aangifte winst met bijlage                 2 201                 58699,00000                                        EUR0   3995      2022020120230131DA                        
371859062         20222VPB                 20230904Aangifte winst met bijlage                 1 101                 76261,00000                                        EUR0   3996      2022020120230131DA                        
371859062         20222VPB                 20230904Aangifte winst met bijlage                 2 201                 76261,00000                                        EUR0   3996      2022020120230131DA                        
371859062         20222VPB                 20230904Aangifte winst met bijlage                 1 101                   148,00000                                        EUR0   4000      2022020120230131DA                        
371859062         20222VPB                 20230904Aangifte winst met bijlage                 2 201                   148,00000                                        EUR0   4000      2022020120230131DA                        
371859062         20222VPB                 20230904Aangifte winst met bijlage                 1 101                  -310,00000                                        EUR0   4003      2022020120230131DA                        
371859062         20222VPB                 20230904Aangifte winst met bijlage                 2 201                  -310,00000                                        EUR0   4003      2022020120230131DA                        
371859062         20222VPB                 20230904Aangifte winst met bijlage                 1 101                    81,00000                                        EUR0   4005      2022020120230131DA                        
371859062         20222VPB                 20230904Aangifte winst met bijlage                 2 201                    81,00000                                        EUR0   4005      2022020120230131DA                        
371859062         20222VPB                 20230904Aangifte winst met bijlage                 1 101                    45,00000                                        EUR0   4010      2022020120230131DA                        
371859062         20222VPB                 20230904Aangifte winst met bijlage                 2 201                    45,00000                                        EUR0   4010      2022020120230131DA                        
371859062         20222VPB                 20230904Aangifte winst met bijlage                     1             196486945,00000                                        EUR0   4038      2022020120230131DA                        
371859062         20222VPB                 20230904Aangifte winst met bijlage                     2             176257630,00000                                        EUR0   4038      2022020120230131DA                        
371859062         20222VPB                 20230904Aangifte winst met bijlage                     1                            QBQlvWWUrDyg                            EUR0   4248      2022020120230131DA                        
371859062         20222VPB                 20230904Aangifte winst met bijlage                     1                            dJSdLnuduSwIWEtIgIUPYWkKbEN             EUR0   4250      2022020120230131DA                        
371859062         20222VPB                 20230904Aangifte winst met bijlage                     1                            hWgbkihzcufMOikBROamyx                  EUR0   4298      2022020120230131DA                        
371859062         20222VPB                 20230904Aangifte winst met bijlage                     1                            AkNEy                                   EUR0   4300      2022020120230131DA                        
371859062         20222VPB                 20230904Aangifte winst met bijlage                     1                     0,00000                                        EUR0   4312      2022020120230131DA                        
371859062         20222VPB                 20230904Aangifte winst met bijlage                     120220201                                                            EUR0   4739      2022020120230131DA                        
371859062         20222VPB                 20230904Aangifte winst met bijlage                     120230131                                                            EUR0   4740      2022020120230131DA                        
371859062         20222VPB                 20230904Aangifte winst met bijlage                     1                   392,00000                                        EUR0   5149      2022020120230131DA                        
371859062         20222VPB                 20230904Aangifte winst met bijlage                     1                   392,00000                                        EUR0   5151      2022020120230131DA                        
371859062         20222VPB                 20230904Aangifte winst met bijlage                     1                    82,00000                                        EUR0   5152      2022020120230131DA                        
371859062         20222VPB                 20230904Aangifte winst met bijlage                     1                    82,00000                                        EUR0   5154      2022020120230131DA                        
371859062         20222VPB                 20230904Aangifte winst met bijlage                     1                   310,00000                                        EUR0   5156      2022020120230131DA                        
371859062         20222VPB                 20230904Aangifte winst met bijlage                     1                 58912,00000                                        EUR0   5157      2022020120230131DA                        
371859062         20222VPB                 20230904Aangifte winst met bijlage                     1                   148,00000                                        EUR0   5158      2022020120230131DA                        
371859062         20222VPB                 20230904Aangifte winst met bijlage                     1                 59370,00000                                        EUR0   5160      2022020120230131DA                        
371859062         20222VPB                 20230904Aangifte winst met bijlage                     1               1000000,00000                                        EUR0   5161      2022020120230131DA                        
371859062         20222VPB                 20230904Aangifte winst met bijlage                     1                     0,00000                                        EUR0   5280      2022020120230131DA                        
371859062         20222VPB                 20230904Aangifte winst met bijlage                     1                     0,00000                                        EUR0   5298      2022020120230131DA                        
371859062         20222VPB                 20230904Aangifte winst met bijlage                     1                     0,00000                                        EUR0   5326      2022020120230131DA                        
371859062         20222VPB                 20230904Aangifte winst met bijlage                     1                     0,00000                                        EUR0   5327      2022020120230131DA                        
371859062         20222VPB                 20230904Aangifte winst met bijlage                     1                  9036,00000                                        EUR0   5338      2022020120230131DA                        
371859062         20222VPB                 20230904Aangifte winst met bijlage                     1                            rWPOKZuEqIPonZJEKhYenOiyFqFMdrtaHKK     EUR0   5354      2022020120230131DA                        
340765185         20222VPB                 20230825Aangifte winst met bijlage                     1                            oUKLMTIdUcd                             EUR0    786      2022010120221231DA                        
340765185         20222VPB                 20230825Aangifte winst met bijlage                     1                     0,00000                                        EUR0    787      2022010120221231DA                        
340765185         20222VPB                 20230825Aangifte winst met bijlage                     1                     0,00000                                        EUR0    789      2022010120221231DA                        
340765185         20222VPB                 20230825Aangifte winst met bijlage                     1               -512566,00000                                        EUR0    791      2022010120221231DA                        
340765185         20222VPB                 20230825Aangifte winst met bijlage                     1               -512566,00000                                        EUR0    793      2022010120221231DA                        
340765185         20222VPB                 20230825Aangifte winst met bijlage                     1             150984755,00000                                        EUR0    796      2022010120221231DA                        
340765185         20222VPB                 20230825Aangifte winst met bijlage                     1             151295321,00000                                        EUR0    800      2022010120221231DA                        
340765185         20222VPB                 20230825Aangifte winst met bijlage                     1             165149741,00000                                        EUR0    801      2022010120221231DA                        
340765185         20222VPB                 20230825Aangifte winst met bijlage                     1                            OhZEjKEIzQaurwkkuxaVcTdebTyweFXxvkBmj   EUR0   1187      2022010120221231DA                        
340765185         20222VPB                 20230825Aangifte winst met bijlage                     1                            MCSxSbhdTzMeUndpwyriQevbCTjgP           EUR0   1189      2022010120221231DA                        
340765185         20222VPB                 20230825Aangifte winst met bijlage                     1              73732500,00000                                        EUR0   1190      2022010120221231DA                        
340765185         20222VPB                 20230825Aangifte winst met bijlage                     1                     0,00000                                        EUR0   1191      2022010120221231DA                        
340765185         20222VPB                 20230825Aangifte winst met bijlage                     1                     0,00000                                        EUR0   1192      2022010120221231DA                        
340765185         20222VPB                 20230825Aangifte winst met bijlage                     1                   100,00000                                        EUR0   1193      2022010120221231DA                        
340765185         20222VPB                 20230825Aangifte winst met bijlage                 1 101             151123218,00000                                        EUR0   1376      2022010120221231DA                        
340765185         20222VPB                 20230825Aangifte winst met bijlage                 1 101             151649812,00000                                        EUR0   1377      2022010120221231DA                        
340765185         20222VPB                 20230825Aangifte winst met bijlage                 1 101             151123218,00000                                        EUR0   1510      2022010120221231DA                        
340765185         20222VPB                 20230825Aangifte winst met bijlage                 1 101             151649812,00000                                        EUR0   1511      2022010120221231DA                        
340765185         20222VPB                 20230825Aangifte winst met bijlage                 1 101             151123218,00000                                        EUR0   1575      2022010120221231DA                        
340765185         20222VPB                 20230825Aangifte winst met bijlage                 1 101             151649812,00000                                        EUR0   1576      2022010120221231DA                        
340765185         20222VPB                 20230825Aangifte winst met bijlage                 1 101             150984755,00000                                        EUR0   1579      2022010120221231DA                        
340765185         20222VPB                 20230825Aangifte winst met bijlage                 1 101             151497321,00000                                        EUR0   1580      2022010120221231DA                        
340765185         20222VPB                 20230825Aangifte winst met bijlage                 1 101              73732500,00000                                        EUR0   1583      2022010120221231DA                        
340765185         20222VPB                 20230825Aangifte winst met bijlage                 1 101              73732500,00000                                        EUR0   1584      2022010120221231DA                        
340765185         20222VPB                 20230825Aangifte winst met bijlage                 1 101             403495103,00000                                        EUR0   1592      2022010120221231DA                        
340765185         20222VPB                 20230825Aangifte winst met bijlage                 1 101             403495103,00000                                        EUR0   1593      2022010120221231DA                        
340765185         20222VPB                 20230825Aangifte winst met bijlage                 1 101            -326242848,00000                                        EUR0   1603      2022010120221231DA                        
340765185         20222VPB                 20230825Aangifte winst met bijlage                 1 101            -325730282,00000                                        EUR0   1604      2022010120221231DA                        
340765185         20222VPB                 20230825Aangifte winst met bijlage                 1 101                 41718,00000                                        EUR0   1650      2022010120221231DA                        
340765185         20222VPB                 20230825Aangifte winst met bijlage                 1 101                 41718,00000                                        EUR0   1679      2022010120221231DA                        
340765185         20222VPB                 20230825Aangifte winst met bijlage                 1 101               -512566,00000                                        EUR0   1752      2022010120221231DA                        
340765185         20222VPB                 20230825Aangifte winst met bijlage                 1 101                 52645,00000                                        EUR0   1809      2022010120221231DA                        
340765185         20222VPB                 20230825Aangifte winst met bijlage                 1 101                921253,00000                                        EUR0   1837      2022010120221231DA                        
340765185         20222VPB                 20230825Aangifte winst met bijlage                 1 101                   364,00000                                        EUR0   1953      2022010120221231DA                        
340765185         20222VPB                 20230825Aangifte winst met bijlage                 1 101                     1,00000                                        EUR0   2103      2022010120221231DA                        
340765185         20222VPB                 20230825Aangifte winst met bijlage                 1 101                            anVmvwJcJtUQbJ                          EUR0   2106      2022010120221231DA                        
340765185         20222VPB                 20230825Aangifte winst met bijlage                     1                            fFeMxDDOUqyCJUqCmFUWzmOJpiOTvxMYpaf     EUR0   2127      2022010120221231DA                        
340765185         20222VPB                 20230825Aangifte winst met bijlage                     1             150984755,00000                                        EUR0   2914      2022010120221231DA                        
340765185         20222VPB                 20230825Aangifte winst met bijlage                     1                            knGGjzwkEgxCqqlkROasrEAvqFZuGYCuUtdyt   EUR0   2973      2022010120221231DA                        
340765185         20222VPB                 20230825Aangifte winst met bijlage                     1                            NkcIg                                   EUR0   3240      2022010120221231DA                        
340765185         20222VPB                 20230825Aangifte winst met bijlage                     1                            RuWsGePHmAjXpFVP                        EUR0   3664      2022010120221231DA                        
340765185         20222VPB                 20230825Aangifte winst met bijlage                     1                            EHFdjysDbilEQMrWKYRDYrdXUxJL            EUR0   3675      2022010120221231DA                        
340765185         20222VPB                 20230825Aangifte winst met bijlage                     1                            RglHWWBzsmGWJX                          EUR0   3811      2022010120221231DA                        
340765185         20222VPB                 20230825Aangifte winst met bijlage                 1 101             151123218,00000                                        EUR0   3967      2022010120221231DA                        
340765185         20222VPB                 20230825Aangifte winst met bijlage                 1 101             151649812,00000                                        EUR0   3968      2022010120221231DA                        
340765185         20222VPB                 20230825Aangifte winst met bijlage                 1 101                     0,00000                                        EUR0   3969      2022010120221231DA                        
340765185         20222VPB                 20230825Aangifte winst met bijlage                 1 101                138463,00000                                        EUR0   3984      2022010120221231DA                        
340765185         20222VPB                 20230825Aangifte winst met bijlage                 1 101                110773,00000                                        EUR0   3985      2022010120221231DA                        
340765185         20222VPB                 20230825Aangifte winst met bijlage                 1 101                138463,00000                                        EUR0   3992      2022010120221231DA                        
340765185         20222VPB                 20230825Aangifte winst met bijlage                 1 101                110773,00000                                        EUR0   3993      2022010120221231DA                        
340765185         20222VPB                 20230825Aangifte winst met bijlage                 1 101               -512566,00000                                        EUR0   3995      2022010120221231DA                        
340765185         20222VPB                 20230825Aangifte winst met bijlage                 1 101                973898,00000                                        EUR0   3996      2022010120221231DA                        
340765185         20222VPB                 20230825Aangifte winst met bijlage                 1 101                461332,00000                                        EUR0   4003      2022010120221231DA                        
340765185         20222VPB                 20230825Aangifte winst met bijlage                 1 101                451149,00000                                        EUR0   4004      2022010120221231DA                        
340765185         20222VPB                 20230825Aangifte winst met bijlage                 1 101                 10547,00000                                        EUR0   4007      2022010120221231DA                        
340765185         20222VPB                 20230825Aangifte winst met bijlage                     1                            FTwaUznjppQWaSWXBgKQjaFCVhBGu           EUR0   4248      2022010120221231DA                        
340765185         20222VPB                 20230825Aangifte winst met bijlage                     1                            yZgNXFyoDTmxraPueZIvmqOO                EUR0   4250      2022010120221231DA                        
340765185         20222VPB                 20230825Aangifte winst met bijlage                     1                            TQjgcpqtim                              EUR0   4298      2022010120221231DA                        
340765185         20222VPB                 20230825Aangifte winst met bijlage                     1                            vueFLInguZIyeYJREyXiu                   EUR0   4300      2022010120221231DA                        
340765185         20222VPB                 20230825Aangifte winst met bijlage                     120220101                                                            EUR0   4739      2022010120221231DA                        
340765185         20222VPB                 20230825Aangifte winst met bijlage                     120221231                                                            EUR0   4740      2022010120221231DA                        
340765185         20222VPB                 20230825Aangifte winst met bijlage                     1                            BtlAsPg                                 EUR0   4822      2022010120221231DA                        
340765185         20222VPB                 20230825Aangifte winst met bijlage                     1                            vYgziTtNapBMChuEfckAfGzozPZtfvAyqI      EUR0   5022      2022010120221231DA                        
340765185         20222VPB                 20230825Aangifte winst met bijlage                     1                            aCtWgcze                                EUR0   5089      2022010120221231DA                        
340765185         20222VPB                 20230825Aangifte winst met bijlage                     1                   364,00000                                        EUR0   5149      2022010120221231DA                        
340765185         20222VPB                 20230825Aangifte winst met bijlage                     1                   364,00000                                        EUR0   5151      2022010120221231DA                        
340765185         20222VPB                 20230825Aangifte winst met bijlage                     1                451149,00000                                        EUR0   5152      2022010120221231DA                        
340765185         20222VPB                 20230825Aangifte winst met bijlage                     1                451149,00000                                        EUR0   5154      2022010120221231DA                        
340765185         20222VPB                 20230825Aangifte winst met bijlage                     1                512566,00000                                        EUR0   5276      2022010120221231DA                        
340765185         20222VPB                 20230825Aangifte winst met bijlage                     1                512566,00000                                        EUR0   5280      2022010120221231DA                        
142896354         20222VPB                 20230830Aangifte winst met bijlage                     1                            TpYpfbJnlPtPxyfBXfzlBbruhkWopE          EUR0    786      2022010120221231DA                        
142896354         20222VPB                 20230830Aangifte winst met bijlage                     1                -41548,00000                                        EUR0    787      2022010120221231DA                        
142896354         20222VPB                 20230830Aangifte winst met bijlage                     1                -41548,00000                                        EUR0    789      2022010120221231DA                        
142896354         20222VPB                 20230830Aangifte winst met bijlage                     1                -41663,00000                                        EUR0    791      2022010120221231DA                        
142896354         20222VPB                 20230830Aangifte winst met bijlage                     1                -40335,00000                                        EUR0    793      2022010120221231DA                        
142896354         20222VPB                 20230830Aangifte winst met bijlage                     1                554179,00000                                        EUR0    796      2022010120221231DA                        
142896354         20222VPB                 20230830Aangifte winst met bijlage                     1                594514,00000                                        EUR0    800      2022010120221231DA                        
142896354         20222VPB                 20230830Aangifte winst met bijlage                     1                594514,00000                                        EUR0    801      2022010120221231DA                        
142896354         20222VPB                 20230830Aangifte winst met bijlage                     1                            LOVzXDhnjggTzL                          EUR0    818      2022010120221231DA                        
142896354         20222VPB                 20230830Aangifte winst met bijlage                     1                     0,00000                                        EUR0    879      2022010120221231DA                        
142896354         20222VPB                 20230830Aangifte winst met bijlage                     1                     0,00000                                        EUR0    880      2022010120221231DA                        
142896354         20222VPB                 20230830Aangifte winst met bijlage                     1                     0,00000                                        EUR0    886      2022010120221231DA                        
142896354         20222VPB                 20230830Aangifte winst met bijlage                     1                    14,00000                                        EUR0    913      2022010120221231DA                        
142896354         20222VPB                 20230830Aangifte winst met bijlage                     1                    14,00000                                        EUR0    915      2022010120221231DA                        
142896354         20222VPB                 20230830Aangifte winst met bijlage                     1                            OmpeOT                                  EUR0   1187      2022010120221231DA                        
142896354         20222VPB                 20230830Aangifte winst met bijlage                     1                 44492,00000                                        EUR0   1190      2022010120221231DA                        
142896354         20222VPB                 20230830Aangifte winst met bijlage                     1                   886,00000                                        EUR0   1192      2022010120221231DA                        
142896354         20222VPB                 20230830Aangifte winst met bijlage                     1                   100,00000                                        EUR0   1193      2022010120221231DA                        
142896354         20222VPB                 20230830Aangifte winst met bijlage                     1                 10654,00000                                        EUR0   1198      2022010120221231DA                        
142896354         20222VPB                 20230830Aangifte winst met bijlage                     1                            RZcwXypZYbFa                            EUR0   1207      2022010120221231DA                        
142896354         20222VPB                 20230830Aangifte winst met bijlage                     1                   213,00000                                        EUR0   1245      2022010120221231DA                        
142896354         20222VPB                 20230830Aangifte winst met bijlage                     1                            ldDT                                    EUR0   1246      2022010120221231DA                        
142896354         20222VPB                 20230830Aangifte winst met bijlage                 1 101                557589,00000                                        EUR0   1376      2022010120221231DA                        
142896354         20222VPB                 20230830Aangifte winst met bijlage                 1 101                597923,00000                                        EUR0   1377      2022010120221231DA                        
142896354         20222VPB                 20230830Aangifte winst met bijlage                 1 101                172560,00000                                        EUR0   1414      2022010120221231DA                        
142896354         20222VPB                 20230830Aangifte winst met bijlage                 1 101                173967,00000                                        EUR0   1415      2022010120221231DA                        
142896354         20222VPB                 20230830Aangifte winst met bijlage                 1 101                 15209,00000                                        EUR0   1510      2022010120221231DA                        
142896354         20222VPB                 20230830Aangifte winst met bijlage                 1 101                 12267,00000                                        EUR0   1511      2022010120221231DA                        
142896354         20222VPB                 20230830Aangifte winst met bijlage                 1 101                259577,00000                                        EUR0   1556      2022010120221231DA                        
142896354         20222VPB                 20230830Aangifte winst met bijlage                 1 101                304837,00000                                        EUR0   1557      2022010120221231DA                        
142896354         20222VPB                 20230830Aangifte winst met bijlage                 1 101                110243,00000                                        EUR0   1561      2022010120221231DA                        
142896354         20222VPB                 20230830Aangifte winst met bijlage                 1 101                106852,00000                                        EUR0   1562      2022010120221231DA                        
142896354         20222VPB                 20230830Aangifte winst met bijlage                 1 101                557589,00000                                        EUR0   1575      2022010120221231DA                        
142896354         20222VPB                 20230830Aangifte winst met bijlage                 1 101                597923,00000                                        EUR0   1576      2022010120221231DA                        
142896354         20222VPB                 20230830Aangifte winst met bijlage                 1 101                554179,00000                                        EUR0   1579      2022010120221231DA                        
142896354         20222VPB                 20230830Aangifte winst met bijlage                 1 101                594514,00000                                        EUR0   1580      2022010120221231DA                        
142896354         20222VPB                 20230830Aangifte winst met bijlage                 1 101                 45378,00000                                        EUR0   1583      2022010120221231DA                        
142896354         20222VPB                 20230830Aangifte winst met bijlage                 1 101                 45378,00000                                        EUR0   1584      2022010120221231DA                        
142896354         20222VPB                 20230830Aangifte winst met bijlage                 1 101                508801,00000                                        EUR0   1603      2022010120221231DA                        
142896354         20222VPB                 20230830Aangifte winst met bijlage                 1 101                549136,00000                                        EUR0   1604      2022010120221231DA                        
142896354         20222VPB                 20230830Aangifte winst met bijlage                 1 101                -41663,00000                                        EUR0   1752      2022010120221231DA                        
142896354         20222VPB                 20230830Aangifte winst met bijlage                 1 101                  5160,00000                                        EUR0   1756      2022010120221231DA                        
142896354         20222VPB                 20230830Aangifte winst met bijlage                 1 101                  5160,00000                                        EUR0   1760      2022010120221231DA                        
142896354         20222VPB                 20230830Aangifte winst met bijlage                 1 101                  1047,00000                                        EUR0   1890      2022010120221231DA                        
142896354         20222VPB                 20230830Aangifte winst met bijlage                 1 101                   435,00000                                        EUR0   1900      2022010120221231DA                        
142896354         20222VPB                 20230830Aangifte winst met bijlage                 1 101                  3836,00000                                        EUR0   1913      2022010120221231DA                        
142896354         20222VPB                 20230830Aangifte winst met bijlage                 1 101                  2851,00000                                        EUR0   1928      2022010120221231DA                        
142896354         20222VPB                 20230830Aangifte winst met bijlage                 1 101                  1688,00000                                        EUR0   1938      2022010120221231DA                        
142896354         20222VPB                 20230830Aangifte winst met bijlage                 1 101                  7244,00000                                        EUR0   1953      2022010120221231DA                        
142896354         20222VPB                 20230830Aangifte winst met bijlage                     1                 32689,00000                                        EUR0   2019      2022010120221231DA                        
142896354         20222VPB                 20230830Aangifte winst met bijlage                     1                 41548,00000                                        EUR0   2020      2022010120221231DA                        
142896354         20222VPB                 20230830Aangifte winst met bijlage                     1                  8859,00000                                        EUR0   2021      2022010120221231DA                        
142896354         20222VPB                 20230830Aangifte winst met bijlage                     1                 -1328,00000                                        EUR0   2031      2022010120221231DA                        
142896354         20222VPB                 20230830Aangifte winst met bijlage                 1 101                     1,00000                                        EUR0   2103      2022010120221231DA                        
142896354         20222VPB                 20230830Aangifte winst met bijlage                 1 101                            VbkBRjfkkpRCIwBrwOZclpLei               EUR0   2106      2022010120221231DA                        
142896354         20222VPB                 20230830Aangifte winst met bijlage                     1                            YfnGPfIpMDbNACQdhNCxBacbqhUHhvFFpbK     EUR0   2127      2022010120221231DA                        
142896354         20222VPB                 20230830Aangifte winst met bijlage                     1                   115,00000                                        EUR0   2129      2022010120221231DA                        
142896354         20222VPB                 20230830Aangifte winst met bijlage                     1                     0,00000                                        EUR0   2130      2022010120221231DA                        
142896354         20222VPB                 20230830Aangifte winst met bijlage                     1                554179,00000                                        EUR0   2914      2022010120221231DA                        
142896354         20222VPB                 20230830Aangifte winst met bijlage                     1                   115,00000                                        EUR0   2993      2022010120221231DA                        
142896354         20222VPB                 20230830Aangifte winst met bijlage                     1                   213,00000                                        EUR0   3449      2022010120221231DA                        
142896354         20222VPB                 20230830Aangifte winst met bijlage                 1 101                            nGeUDPiezWn                             EUR0   3584      2022010120221231DA                        
142896354         20222VPB                 20230830Aangifte winst met bijlage                     1                            ohzxJYHCVlWc                            EUR0   3664      2022010120221231DA                        
142896354         20222VPB                 20230830Aangifte winst met bijlage                     1                            ILdFrNFoPji                             EUR0   3811      2022010120221231DA                        
142896354         20222VPB                 20230830Aangifte winst met bijlage                     1                     0,00000                                        EUR0   3941      2022010120221231DA                        
142896354         20222VPB                 20230830Aangifte winst met bijlage                     1                 -1328,00000                                        EUR0   3950      2022010120221231DA                        
142896354         20222VPB                 20230830Aangifte winst met bijlage                 1 101                172083,00000                                        EUR0   3951      2022010120221231DA                        
142896354         20222VPB                 20230830Aangifte winst met bijlage                 1 101                173203,00000                                        EUR0   3952      2022010120221231DA                        
142896354         20222VPB                 20230830Aangifte winst met bijlage                 1 101                   477,00000                                        EUR0   3953      2022010120221231DA                        
142896354         20222VPB                 20230830Aangifte winst met bijlage                 1 101                   764,00000                                        EUR0   3954      2022010120221231DA                        
142896354         20222VPB                 20230830Aangifte winst met bijlage                 1 101                  1435,00000                                        EUR0   3955      2022010120221231DA                        
142896354         20222VPB                 20230830Aangifte winst met bijlage                 1 101                     0,00000                                        EUR0   3956      2022010120221231DA                        
142896354         20222VPB                 20230830Aangifte winst met bijlage                 1 101                 10654,00000                                        EUR0   3970      2022010120221231DA                        
142896354         20222VPB                 20230830Aangifte winst met bijlage                 1 101                 10243,00000                                        EUR0   3971      2022010120221231DA                        
142896354         20222VPB                 20230830Aangifte winst met bijlage                 1 101                 10654,00000                                        EUR0   3972      2022010120221231DA                        
142896354         20222VPB                 20230830Aangifte winst met bijlage                 1 101                  3410,00000                                        EUR0   3984      2022010120221231DA                        
142896354         20222VPB                 20230830Aangifte winst met bijlage                 1 101                  3409,00000                                        EUR0   3985      2022010120221231DA                        
142896354         20222VPB                 20230830Aangifte winst met bijlage                 1 101                  3410,00000                                        EUR0   3992      2022010120221231DA                        
142896354         20222VPB                 20230830Aangifte winst met bijlage                 1 101                  3409,00000                                        EUR0   3993      2022010120221231DA                        
142896354         20222VPB                 20230830Aangifte winst met bijlage                 1 101                -41663,00000                                        EUR0   3995      2022010120221231DA                        
142896354         20222VPB                 20230830Aangifte winst met bijlage                 1 101                  5605,00000                                        EUR0   3996      2022010120221231DA                        
142896354         20222VPB                 20230830Aangifte winst met bijlage                 1 101                     0,00000                                        EUR0   3999      2022010120221231DA                        
142896354         20222VPB                 20230830Aangifte winst met bijlage                 1 101                   287,00000                                        EUR0   4000      2022010120221231DA                        
142896354         20222VPB                 20230830Aangifte winst met bijlage                 1 101                -41218,00000                                        EUR0   4003      2022010120221231DA                        
142896354         20222VPB                 20230830Aangifte winst met bijlage                 1 101                -38513,00000                                        EUR0   4008      2022010120221231DA                        
142896354         20222VPB                 20230830Aangifte winst met bijlage                     1              24364320,00000                                        EUR0   4038      2022010120221231DA                        
142896354         20222VPB                 20230830Aangifte winst met bijlage                 1 101                  4555,00000                                        EUR0   4044      2022010120221231DA                        
142896354         20222VPB                 20230830Aangifte winst met bijlage                 1 101                  2024,00000                                        EUR0   4045      2022010120221231DA                        
142896354         20222VPB                 20230830Aangifte winst met bijlage                     1                            kXHwDxPNazgk                            EUR0   4128      2022010120221231DA                        
142896354         20222VPB                 20230830Aangifte winst met bijlage                     1                            kxwsCvRNyXVDXyVXAyPlUEmdKOPXvljSA       EUR0   4139      2022010120221231DA                        
142896354         20222VPB                 20230830Aangifte winst met bijlage                     1                   284,00000                                        EUR0   4140      2022010120221231DA                        
142896354         20222VPB                 20230830Aangifte winst met bijlage                     1                            iLSxqFRCbKrHcrcpSLxTxgihYQprYiTzxXMiMAs EUR0   4142      2022010120221231DA                        
142896354         20222VPB                 20230830Aangifte winst met bijlage                     2                            vO                                      EUR0   4142      2022010120221231DA                        
142896354         20222VPB                 20230830Aangifte winst met bijlage                     3                            XOpGBeJDCyGlrKHUhtRheWt                 EUR0   4142      2022010120221231DA                        
142896354         20222VPB                 20230830Aangifte winst met bijlage                     4                            oeMMfJvBRBBHTpgrjDwhtWaiTDypWeVGxEfP    EUR0   4142      2022010120221231DA                        
142896354         20222VPB                 20230830Aangifte winst met bijlage                     5                            YwszZNSDPuWjhRrLbkAKaDrEkJdnYXlWhR      EUR0   4142      2022010120221231DA                        
142896354         20222VPB                 20230830Aangifte winst met bijlage                     6                            kJsHwbzAyYlNIxap                        EUR0   4142      2022010120221231DA                        
142896354         20222VPB                 20230830Aangifte winst met bijlage                     7                            newgFNUxtsEZTRxiXELHzkGrgcEdfXBV        EUR0   4142      2022010120221231DA                        
142896354         20222VPB                 20230830Aangifte winst met bijlage                     1                    45,00000                                        EUR0   4143      2022010120221231DA                        
142896354         20222VPB                 20230830Aangifte winst met bijlage                     2                   110,00000                                        EUR0   4143      2022010120221231DA                        
142896354         20222VPB                 20230830Aangifte winst met bijlage                     3                    29,00000                                        EUR0   4143      2022010120221231DA                        
142896354         20222VPB                 20230830Aangifte winst met bijlage                     4                    42,00000                                        EUR0   4143      2022010120221231DA                        
142896354         20222VPB                 20230830Aangifte winst met bijlage                     5                    68,00000                                        EUR0   4143      2022010120221231DA                        
142896354         20222VPB                 20230830Aangifte winst met bijlage                     6                   257,00000                                        EUR0   4143      2022010120221231DA                        
142896354         20222VPB                 20230830Aangifte winst met bijlage                     7                   845,00000                                        EUR0   4143      2022010120221231DA                        
142896354         20222VPB                 20230830Aangifte winst met bijlage                     1                    14,00000                                        EUR0   4148      2022010120221231DA                        
142896354         20222VPB                 20230830Aangifte winst met bijlage                     2                    39,00000                                        EUR0   4148      2022010120221231DA                        
142896354         20222VPB                 20230830Aangifte winst met bijlage                     3                     8,00000                                        EUR0   4148      2022010120221231DA                        
142896354         20222VPB                 20230830Aangifte winst met bijlage                     4                     8,00000                                        EUR0   4148      2022010120221231DA                        
142896354         20222VPB                 20230830Aangifte winst met bijlage                     5                    24,00000                                        EUR0   4148      2022010120221231DA                        
142896354         20222VPB                 20230830Aangifte winst met bijlage                     6                    64,00000                                        EUR0   4148      2022010120221231DA                        
142896354         20222VPB                 20230830Aangifte winst met bijlage                     7                   127,00000                                        EUR0   4148      2022010120221231DA                        
142896354         20222VPB                 20230830Aangifte winst met bijlage                     1                            EuZalBnaVmRyjLTWRmDvCBKSrrqXg           EUR0   4248      2022010120221231DA                        
142896354         20222VPB                 20230830Aangifte winst met bijlage                     1                            ViJGoufESXdKyBLgOAElC                   EUR0   4249      2022010120221231DA                        
142896354         20222VPB                 20230830Aangifte winst met bijlage                     1                            nohxtyfyoYAbSWKASK                      EUR0   4250      2022010120221231DA                        
142896354         20222VPB                 20230830Aangifte winst met bijlage                     1                            YamKfkUJSRuq                            EUR0   4298      2022010120221231DA                        
142896354         20222VPB                 20230830Aangifte winst met bijlage                     1                            RcDAmdNAFjvQHCbjO                       EUR0   4299      2022010120221231DA                        
142896354         20222VPB                 20230830Aangifte winst met bijlage                     1                            mMsQBofsjaJwmEslPDiDBuFWkPhYAmrcPlBwfxI EUR0   4300      2022010120221231DA                        
142896354         20222VPB                 20230830Aangifte winst met bijlage                     1                     0,00000                                        EUR0   4312      2022010120221231DA                        
142896354         20222VPB                 20230830Aangifte winst met bijlage                     120220101                                                            EUR0   4739      2022010120221231DA                        
142896354         20222VPB                 20230830Aangifte winst met bijlage                     120221231                                                            EUR0   4740      2022010120221231DA                        
142896354         20222VPB                 20230830Aangifte winst met bijlage                     1                            qlgpsrJIugLDXLSypPlQaDDUbvDQXyykUOfVH   EUR0   5089      2022010120221231DA                        
142896354         20222VPB                 20230830Aangifte winst met bijlage                     1                   284,00000                                        EUR0   5119      2022010120221231DA                        
142896354         20222VPB                 20230830Aangifte winst met bijlage                     1                   360,00000                                        EUR0   5120      2022010120221231DA                        
142896354         20222VPB                 20230830Aangifte winst met bijlage                     1                    15,00000                                        EUR0   5121      2022010120221231DA                        
142896354         20222VPB                 20230830Aangifte winst met bijlage                     2                    15,00000                                        EUR0   5121      2022010120221231DA                        
142896354         20222VPB                 20230830Aangifte winst met bijlage                     3                    15,00000                                        EUR0   5121      2022010120221231DA                        
142896354         20222VPB                 20230830Aangifte winst met bijlage                     4                    15,00000                                        EUR0   5121      2022010120221231DA                        
142896354         20222VPB                 20230830Aangifte winst met bijlage                     5                    15,00000                                        EUR0   5121      2022010120221231DA                        
142896354         20222VPB                 20230830Aangifte winst met bijlage                     6                    15,00000                                        EUR0   5121      2022010120221231DA                        
142896354         20222VPB                 20230830Aangifte winst met bijlage                     7                    15,00000                                        EUR0   5121      2022010120221231DA                        
142896354         20222VPB                 20230830Aangifte winst met bijlage                     1                    14,00000                                        EUR0   5122      2022010120221231DA                        
142896354         20222VPB                 20230830Aangifte winst met bijlage                     2                    39,00000                                        EUR0   5122      2022010120221231DA                        
142896354         20222VPB                 20230830Aangifte winst met bijlage                     3                     8,00000                                        EUR0   5122      2022010120221231DA                        
142896354         20222VPB                 20230830Aangifte winst met bijlage                     4                     8,00000                                        EUR0   5122      2022010120221231DA                        
142896354         20222VPB                 20230830Aangifte winst met bijlage                     5                    24,00000                                        EUR0   5122      2022010120221231DA                        
142896354         20222VPB                 20230830Aangifte winst met bijlage                     6                    64,00000                                        EUR0   5122      2022010120221231DA                        
142896354         20222VPB                 20230830Aangifte winst met bijlage                     7                   127,00000                                        EUR0   5122      2022010120221231DA                        
142896354         20222VPB                 20230830Aangifte winst met bijlage                     1                  7244,00000                                        EUR0   5149      2022010120221231DA                        
142896354         20222VPB                 20230830Aangifte winst met bijlage                     1                  7244,00000                                        EUR0   5151      2022010120221231DA                        
142896354         20222VPB                 20230830Aangifte winst met bijlage                     1                  2851,00000                                        EUR0   5152      2022010120221231DA                        
142896354         20222VPB                 20230830Aangifte winst met bijlage                     1                  2851,00000                                        EUR0   5154      2022010120221231DA                        
142896354         20222VPB                 20230830Aangifte winst met bijlage                     1                  4393,00000                                        EUR0   5156      2022010120221231DA                        
142896354         20222VPB                 20230830Aangifte winst met bijlage                     1                -41548,00000                                        EUR0   5157      2022010120221231DA                        
142896354         20222VPB                 20230830Aangifte winst met bijlage                     1                   287,00000                                        EUR0   5158      2022010120221231DA                        
142896354         20222VPB                 20230830Aangifte winst met bijlage                     1                     0,00000                                        EUR0   5160      2022010120221231DA                        
142896354         20222VPB                 20230830Aangifte winst met bijlage                     1               1000000,00000                                        EUR0   5161      2022010120221231DA                        
142896354         20222VPB                 20230830Aangifte winst met bijlage                 1 101                209761,00000                                        EUR0   5166      2022010120221231DA                        
142896354         20222VPB                 20230830Aangifte winst met bijlage                 1 101                275000,00000                                        EUR0   5167      2022010120221231DA                        
142896354         20222VPB                 20230830Aangifte winst met bijlage                 1 101                 38880,00000                                        EUR0   5168      2022010120221231DA                        
142896354         20222VPB                 20230830Aangifte winst met bijlage                 1 101                172083,00000                                        EUR0   5169      2022010120221231DA                        
142896354         20222VPB                 20230830Aangifte winst met bijlage                 1 101                     0,00000                                        EUR0   5172      2022010120221231DA                        
142896354         20222VPB                 20230830Aangifte winst met bijlage                     1                     0,00000                                        EUR0   5338      2022010120221231DA                        
142896354         20222VPB                 20230830Aangifte winst met bijlage                     1                    14,00000                                        EUR0   5342      2022010120221231DA                        
142896354         20222VPB                 20230830Aangifte winst met bijlage                     1                     0,00000                                        EUR0   5343      2022010120221231DA                        
142896354         20222VPB                 20230830Aangifte winst met bijlage                     1                    14,00000                                        EUR0   5344      2022010120221231DA                        